:020000040800F2
:100000009006002065010008C90C0008290C0008B2
:1000100000000000000000000000000000000000E0
:10002000000000000000000000000000CD0C0008EF
:100030000000000000000000CB0C0008CF0C0008FE
:100040007701000800000000770100087701000830
:1000500077010008770100087701000877010008A0
:100060000000000077010008770100087701000810
:100070007701000877010008770100080000000000
:100080007701000800000000000000007701000870
:1000900000000000770100087701000877010008E0
:1000A0007701000877010008770100087701000850
:1000B00077010008000000000000000000000000C0
:1000C00000F002F800F03EF80CA030C80838241800
:1000D0002D18A246671EAB4654465D46AC4201D180
:1000E00000F030F87E460F3E0FCCB6460126334274
:1000F00000D0FB1AA246AB4633431847480D000018
:10010000680D0000103A02D378C878C1FAD85207B7
:1001100001D330C830C101D504680C6070470000BD
:100120000023002400250026103A01D378C1FBD813
:10013000520700D330C100D50B6070471FB51FBDFB
:1001400010B510BD00F0FAF81146FFF7F7FF00F008
:100150004FFE00F012F903B4FFF7F2FF03BC00F00A
:1001600019F900000748804707480047FEE7FEE707
:10017000FEE7FEE7FEE7FEE704480549054A064BB1
:1001800070470000310D0008C100000890000020F9
:1001900090060020900200209002002001E004C0A0
:1001A000091F0429FBD28B0701D50280801CC907D7
:1001B00000D00270704700290BD0C30702D0027034
:1001C000401C491E022904D3830702D50280801CEB
:1001D000891EE3E70022EEE70022DFE700220309A1
:1001E0008B422CD3030A8B4211D300239C464EE052
:1001F00003460B433CD4002243088B4231D303090E
:100200008B421CD3030A8B4201D394463FE0C309BF
:100210008B4201D3CB01C01A524183098B4201D3D7
:100220008B01C01A524143098B4201D34B01C01AC2
:10023000524103098B4201D30B01C01A5241C3083A
:100240008B4201D3CB00C01A524183088B4201D3A9
:100250008B00C01A524143088B4201D34B00C01A95
:100260005241411A00D201465241104670475DE0AA
:10027000CA0F00D04942031000D34042534000222D
:100280009C4603098B422DD3030A8B4212D3FC22D6
:10029000890112BA030A8B420CD3890192118B4255
:1002A00008D3890192118B4204D389013AD092116B
:1002B00000E08909C3098B4201D3CB01C01A524126
:1002C00083098B4201D38B01C01A524143098B42EF
:1002D00001D34B01C01A524103098B4201D30B01D8
:1002E000C01A5241C3088B4201D3CB00C01A5241FD
:1002F00083088B4201D38B00C01A5241D9D24308E4
:100300008B4201D34B00C01A5241411A00D2014620
:10031000634652415B10104601D34042002B00D58A
:100320004942704763465B1000D3404201B500204C
:10033000C046C04602BD704770477047754600F022
:1003400025F8AE46050069465346C008C0008546FC
:1003500018B020B5FFF710FF60BC00274908B6466B
:100360000026C0C5C0C5C0C5C0C5C0C5C0C5C0C5C4
:10037000C0C5403D49008D46704710B50446C04693
:10038000C0462046FFF7E7FE10BD0000004870475A
:100390003000002001491820ABBEFEE72600020015
:1003A0007047000070B5044600F0C2F80546601CB6
:1003B00002D004480078241800F0BAF8401BA0428C
:1003C000FAD370BD00000020F0B5002303249AE0AA
:1003D0002A4601259D402A407ED00E79B607B60FE9
:1003E000012E01D0022E16D186682746B4465E0043
:1003F000B646B7406646BE43B446CF687646B74079
:100400006646374387604668AE430D79ED06ED0FCB
:100410009D40354345600D79ED43AD0708D0C56873
:100420005F002646BE40B5438E68BE402E43C66080
:100430000D79AD07AD0F022D0ED1DD08AD002D18E1
:10044000AC462D6A5E07F60E0F27B740BD430F6915
:10045000B7402F4365462F6205685F002646BE40C1
:10046000B5430E79B607B60FBE402E4306604D6801
:10047000AD03AD0F46D09E08264DB6007519AC46AB
:100480002D6E9E07F60E0F27B740BD4305273F0789
:10049000B84201D100270FE01F4FB84201D1012718
:1004A0000AE01E4FB84201D1022705E01C4FB842B6
:1004B00001D1032700E00527B7402F43154D6646BD
:1004C00037662D684E689543F60200D51543114FE7
:1004D0003D607D68954300E014E04E68B60200D5AB
:1004E00015437D600B4D80356E684F689643BF03A2
:1004F00000D516436E602E684F689643FF0300D503
:1005000016432E605B1C0A681546DA4000D05FE790
:10051000F0BD000000180240000400500008005028
:10052000000C0050002A01D0816170478162704741
:100530000148806870470000000000200248816880
:1005400002788918816070470000002010B50848C3
:1005500000240168821511430160032000F00AF8AD
:10056000002801D0012401E000F028F8204610BD49
:100570000020024070B50F4E002431780546002956
:1005800015D07D20C000FFF729FE01460A4800680B
:10059000FFF724FE00F030FB002808D1042D06D21E
:1005A00000222946401E00F01FF8756000E001247B
:1005B000204670BD000000200C00002008B509484E
:1005C0000168012211430160006810400090054855
:1005D0004038C26B01040A43C263C06B08400090FC
:1005E00008BD00004010024010B500F0A3FB10BD94
:1005F00010B50F4C21680322520291430143216040
:10060000C11FFF39FA390ED10A4806210068484354
:100610000949FFF7E3FD401C02E0002805D0401E19
:1006200061694905F9D4002010BD032010BD000008
:10063000007000400C00002040420F00F8B50F464B
:10064000060043D04D4D28684007400FB84213D2F2
:100650002868C008C00038432860FFF769FF0446D7
:1006600005E0FFF765FF011B4548814261D8286816
:100670004007400FB842F4D13068424C81070DD595
:10068000400704D5A068072109030843A060A068BB
:100690000F2109028843B1680843A0603078C00781
:1006A00032D0706801280AD002280BD000280FD061
:1006B0003449403103280ED0C969890704E0216814
:1006C000890301E021688901002906DB0120F8BDCA
:1006D00021684905F8E7096AEFE7A168C908C90078
:1006E0000143A160FFF724FF009006E0FFF720FF21
:1006F0000099411A224881421BD8A068382108403D
:100700007168C9008842F1D128684007400FB8429B
:1007100017D91A480168C908C90039430160FFF7B1
:1007200007FF054607E0FFF703FF411B144881421E
:1007300001D90320F8BD114800684007400FB842B6
:10074000F1D13078400706D5A06807210903884316
:10075000F1680843A06000F01DF8A1683C228909F7
:100760001140094A515CC906C90EC84007490860D2
:1007700007480068FFF7FEFEF8BD000000200240B9
:100780008813000000100240040E00080C00002036
:100790000400002010B5204CA068204A8006400FBD
:1007A00016D0A0688006410F501001290FD0A16813
:1007B0008906490F022912D0A0688006400F04283C
:1007C00023D0A0688006400F032821D0002010BD50
:1007D000206801218004400F8140104612E0E1684A
:1007E0008B07E1689B0F4906490F491C032B00D07A
:1007F0001046FFF7F3FCE1684904490E4843E168FD
:10080000490F491CFFF7EAFC10BD0120C00310BDD1
:100810007D20000210BD0000001002400024F40002
:10082000F8B504007ED020783827C007E94D0028AD
:1008300046D0A868E96838408907890F102802D097
:1008400008280BD001E0032908D0012062680004C9
:1008500082420AD129680143296015E02868800393
:100860002ED560680028DDD02AE0052301211B0475
:1008700089049A422A6802D10A432A60EAE782433D
:100880002A60286888432860606800280CD0FFF739
:100890004FFE064604E0FFF74BFE801B642873D82A
:1008A00028688003F7D50BE0FFF742FE064604E018
:1008B000FFF73EFE801B6428F1D828688003F7D438
:1008C0002078800769D5A868E96838408A07072139
:1008D000920FC902102802D0002813D001E0022A8A
:1008E00010D0E068002846D0286888432169084372
:1008F00028602868FF21013108432860FFF718FEAF
:1009000006462CE02A68520502D5E268002A89D002
:100910006A687F231B029A4363691B021A436A6059
:10092000002800E08DE00ED1286888432169084343
:100930002860286801218004400F8140A648FFF705
:100940004DFCA6490860A6480068FFF713FE002882
:1009500077D122E0FFF7ECFD801B02289FD82868A2
:100960004005F7D568687F2109028843616909025B
:100970000843686011E02968FF2001308143296045
:10098000FFF7D6FD064605E098E0FFF7D1FD801B96
:10099000022884D828684005F7D42078914E0007B3
:1009A0002ED5A8688006400F03280AD0A069002829
:1009B000306A16D0012108433062FFF7B9FD0746BF
:1009C0000BE0306A80071BD5A06900289FD017E094
:1009D000FFF7AEFDC01B022870D8306A8007F7D53C
:1009E0000EE0400840003062FFF7A2FD074604E039
:1009F000FFF79EFDC01B022860D8306A8007F7D43D
:100A0000207840076CD5A86800278006400F04288E
:100A100018D0E86BC00008D4E96B0120000701433F
:100A2000E963E96B0140012700916F480168C9053E
:100A300019D40168821511430160FFF779FD009018
:100A40000DE083E0F06980074AD5A06800287DD0DA
:100A500046E0FFF76DFD0099401A02282ED8624843
:100A60000068C005F5D5A168012910D0042005292A
:100A7000F16911D049084900F161F1698143F161DF
:100A8000A068002816D0FFF753FD00900EE0F06933
:100A900001210843F061F3E70143F161F7E7FFF754
:100AA00047FD0099411A5148814265D8F069800795
:100AB000F5D50EE0FFF73CFD009007E05CE0FFF7A6
:100AC00037FD0099411A4948814255D8F06980079D
:100AD000F5D4002F04D0E96B012000078143E963BE
:100AE000E069002873D0A9688906490F02294DD012
:100AF000012636060228286805D0B0432860FFF793
:100B000017FD04463AE0B0432860FFF711FD0746A1
:100B100004E0FFF70DFDC01B02282DD828688001D6
:100B2000F7D4616A206AA26A0843E16A120211439B
:100B30000843216B0843E9682D4A11400843E860E7
:100B4000286830432860E868012100E03DE009079B
:100B50000843E860FFF7ECFC044604E0FFF7E8FC1C
:100B6000001B022808D828688001F7D52FE0FFF77E
:100B7000DFFC001B022801D90320F8BD2868800192
:100B8000F5D4E8681B490840E86020E00128F4D06B
:100B9000E868226A8107890F914216D17021626A42
:100BA0000140914211D17F21A26A09020140120243
:100BB00091420AD11F214904E26A0140914204D1C5
:100BC000400F216B4007884201D00120F8BD002072
:100BD000F8BD0000001002400024F4000C000020CA
:100BE0000400002040100240007000408813000004
:100BF0008C80C11FFCFFFEEF094910B5401E8842E2
:100C000001D9012010BD074C60610321081F00F0CD
:100C100091F80020A06107202061002010BD000095
:100C2000FFFFFF0000E000E0FEE700001FB56A469E
:100C300000990D48127901290AD0022907D1090229
:100C4000012A0ED0002A02D10122FFF76BFC1FBD42
:100C5000012A04D0002AFAD101228021F5E70022DE
:100C6000FBE70022F1E700000004005070B586B0F9
:100C700014216846FFF7B0FA1048426B02210A437C
:100C80004263426B0A400592416B01242143416358
:100C9000406B0B4D20400B4E0590002229463046FC
:100CA000FFF740FC002102910391009501946946F1
:100CB0003046FFF789FB06B070BD0000001002400F
:100CC0008102000000040050FEE77047704710B535
:100CD000FFF734FC10BD10B592B034216846FFF721
:100CE0007BFA002401200D940E940F94400210947E
:100CF000FFF77EFC02200090C00103904020059089
:100D0000049407946846FFF78BFD002801D072B663
:100D1000FEE707200D900E940F94002110940DA86B
:100D2000FFF78CFC002801D072B6FEE712B010BDB0
:100D3000704700008307FF22DB0E9A408907090EE7
:100D40009940002808DB830809489B001B18186895
:100D500090430843186070470007000F0838830865
:100D600004489B001B18D86990430843D86170471A
:100D700000E400E000ED00E0F8B506ACF0CCFFF7D1
:100D800055FF3B46324629462046FFF74FFFF8BD48
:100D9000F0B585B0154C0020207102260125266192
:100DA000256020752046143007C801AB009607C3A4
:100DB000211D0EC92846FFF7DFFF7D27FF003846BB
:100DC000FFF7F0FA2571266125602046257514305D
:100DD00007C801AB009607C3241D0ECC2846FFF7B9
:100DE000CBFF3846FFF7DEFA05B0F0BD100000205B
:100DF000FFF7ACFBFFF76FFFFFF738FFFFF7C8FF08
:100E0000FCE70000000000000000000000000000FF
:100E100000000000000000000000000000000000D2
:100E200000000000010000000200000003000000BC
:100E30000400000006000000070000000800000099
:100E400009000000640E00080000002010000000EF
:100E500004010008740E0008100000208006000045
:100E60002001000801000000040000000000000054
:040E70000024F40066
:04000005080000C12E
:00000001FF
